:020000040000FA
:0400000010EF00F00D
:100008006C82F2A40AEF00F00CEF00F00EEF00F0A3
:0C00180097EC02F06C9211003FEF02F038
:10020000000051EF01F0ACEC02F0E806D8A40BEFCF
:1002100001F00DEF01F068EF01F0010E5D6E68EF87
:1002200001F089868CBE17EF01F019EF01F068EF3D
:1002300001F0020E5D6E68EF01F0A8EC02F0020A18
:10024000D8A425EF01F027EF01F068EF01F0030ECD
:100250005D6E68EF01F05E0E5F6ECEEC01F05E50F9
:1002600076EC02F0040E5D6E68EF01F05E50F9EC82
:1002700001F0E80E5F1809E1030E601861106210CA
:10028000D8A445EF01F047EF01F068EF01F05E50B0
:1002900076EC02F0050E5D6E68EF01F05D6A68EFC6
:1002A00001F05D50000AD8B403EF01F0010AD8B4A0
:1002B00011EF01F0030AD8B41DEF01F0010AD8B420
:1002C0002BEF01F0070AD8B436EF01F04EEF01F042
:1002D0001200BEEF01F0AC9A5CA071EF01F073EF79
:1002E00001F075EF01F0010E5A6E5CA27AEF01F099
:1002F0007CEF01F0CDEF01F0020E5A6ECDEF01F070
:10030000AC8A210E596087EF01F089EF01F099EF77
:1003100001F0ACA28EEF01F090EF01F0CDEF01F013
:100320005950010FD96EDA6ADF50AD6E592ACDEF00
:1003300001F0AC9A596A5C905B805A6ACDEF01F08B
:10034000AC8A1F0E5960A7EF01F0A9EF01F0B8EFDA
:1003500001F0ACA2AEEF01F0B0EF01F0CDEF01F093
:100360005950220FD96EDA6ADF50AD6E96EF01F068
:10037000AC9A596A5C925B829DEF01F05A50000A78
:10038000D8B46BEF01F0010AD8B480EF01F0030A92
:10039000D8B4A0EF01F09DEF01F01200616ADDEF2B
:1003A00001F0612A040E6118D8A4D9EF01F0DBEF47
:1003B00001F0DDEF01F0F8EF01F06150050DF350B1
:1003C000450FD96EDA6ADE04D8B4E9EF01F0EBEF3D
:1003D00001F0D1EF01F06150050DF350450FD96EDA
:1003E000DA6A010EDF6E5F50D96EDA6A61C0DFFF34
:1003F00012006B6EF29E55C067F056C068F057C091
:1004000069F058C06AF0F28E6B50050DF350410F41
:10041000D96EDA6ADECF63F0DECF64F0DECF65F04E
:10042000DECF66F06350675C5F6E64506858606E44
:1004300065506958616E66506A58626E12003E20BF
:100440004C5342616E6B202D204E6577206461799C
:10045000206861732073746172746564210A003EC0
:10046000204C5342616E6B202D204F70656E2065CD
:1004700078746572696F7220646F6F720A003E0E45
:10048000F66E040EF76E000EF86E00EE01F010EE40
:1004900040F00900F5CFEEFFE550E150FAE100EE43
:1004A00041F01E0EEE6AE806FDE16C906C92000EC3
:1004B000F86E000188EF02F05F6A5F50050DF3509F
:1004C000450FD96EDA6ADF6A5F2A030E5F646BEF4D
:1004D00002F06DEF02F05DEF02F0820ED56EFD0EC0
:1004E000D76E8F0ED66EF294F28A12005F6EF29E75
:1004F0005F50050DF350410FD96EDA6A55C0DEFF2B
:1005000056C0DEFF57C0DEFF58C0DEFFF28E12007D
:10051000A3EC02F0B0EC02F089985CEC02F001EC84
:1005200001F069EC01F08FEF02F010EF00F0FD0E2A
:10053000D76E8F0ED66EF294010E5526000E5622FF
:10054000572258221200948C948E92969298120000
:100550005C825B50020B12005C805B50010B12004E
:04056000D08E120027
:020000040020DA
:08000000FFFFFFFFFFFFFFFF00
:020000040030CA
:0E000000FF021F1EFF8185FF03C003E00340C7
:00000001FF
