:020000040000FA
:040000000FEF00F00E
:100008003382F2A40AEF00F00CEF00F00DEF00F0DD
:0A001800F294339211006BEF01F037
:10020000000039EF01F0AC9A1CA009EF01F00BEFF0
:1002100001F00FEF01F0010E1A6E48EF01F01CA281
:1002200014EF01F016EF01F048EF01F0020E1A6E24
:1002300048EF01F0AC8A140E196021EF01F023EFB2
:1002400001F033EF01F0ACA228EF01F02AEF01F04A
:1002500048EF01F019501E0FD96EDA6ADF50AD6E0B
:10026000192A48EF01F0196A1C901B801A6A48EF9E
:1002700001F01A50000AD8B403EF01F0010AD8B413
:100280001AEF01F0030AD8B448EF01F036EF01F09D
:1002900012005FEF01F0C0EC01F0E806D8A453EFC4
:1002A00001F055EF01F059EF01F0010E1D6E6AEFFC
:1002B00001F01D6A6AEF01F089866AEF01F01D50B6
:1002C000000AD8B44BEF01F0010AD8B45CEF01F09A
:1002D00059EF01F01200620EF66E030EF76E000E7B
:1002E000F86E00EE1EF010EE14F00900F5CFEEFFF0
:1002F000E550E150FAE100EE01F01D0EEE6AE8066D
:10030000FDE133903392000EF86E0001A2EF01F090
:10031000326A3250050DF350050FD96EDA6ADF6A82
:10032000322A030E326497EF01F099EF01F089EF62
:1003300001F0820ED56EFD0ED76E8F0ED66EF29442
:10034000F28A1200BBEC01F0C4EC01F0899888EC51
:1003500001F049EC01F001EC01F0A9EF01F00FEF21
:1003600000F04E65772064617920686173207374B2
:10037000617274656421948C948E929692981200A6
:0C0380001C801B50010B1200D08E1200DC
:020000040020DA
:08000000FFFFFFFFFFFFFFFF00
:020000040030CA
:0E000000FF021F1EFF8185FF03C003E00340C7
:00000001FF
